{
  "contractName": "DumpEth",
  "abi": [
    {
      "inputs": [],
      "payable": false,
      "stateMutability": "nonpayable",
      "type": "constructor"
    },
    {
      "anonymous": false,
      "inputs": [
        {
          "indexed": false,
          "internalType": "address",
          "name": "accountAddress",
          "type": "address"
        },
        {
          "indexed": false,
          "internalType": "uint256",
          "name": "amount",
          "type": "uint256"
        }
      ],
      "name": "LogDepositMade",
      "type": "event"
    },
    {
      "anonymous": false,
      "inputs": [
        {
          "indexed": false,
          "internalType": "address",
          "name": "accountAddress",
          "type": "address"
        },
        {
          "indexed": false,
          "internalType": "uint256",
          "name": "amount",
          "type": "uint256"
        }
      ],
      "name": "LogWithdrawalMade",
      "type": "event"
    },
    {
      "anonymous": false,
      "inputs": [
        {
          "indexed": false,
          "internalType": "address",
          "name": "sender",
          "type": "address"
        },
        {
          "indexed": false,
          "internalType": "uint256",
          "name": "value",
          "type": "uint256"
        }
      ],
      "name": "Received",
      "type": "event"
    },
    {
      "payable": true,
      "stateMutability": "payable",
      "type": "fallback"
    },
    {
      "constant": false,
      "inputs": [],
      "name": "toggleActive",
      "outputs": [],
      "payable": false,
      "stateMutability": "nonpayable",
      "type": "function"
    },
    {
      "constant": false,
      "inputs": [],
      "name": "deposit",
      "outputs": [
        {
          "internalType": "uint256",
          "name": "",
          "type": "uint256"
        }
      ],
      "payable": true,
      "stateMutability": "payable",
      "type": "function"
    },
    {
      "constant": false,
      "inputs": [
        {
          "internalType": "uint256",
          "name": "_amount",
          "type": "uint256"
        }
      ],
      "name": "withdraw",
      "outputs": [
        {
          "internalType": "uint256",
          "name": "",
          "type": "uint256"
        }
      ],
      "payable": false,
      "stateMutability": "nonpayable",
      "type": "function"
    },
    {
      "constant": true,
      "inputs": [],
      "name": "getContractBalance",
      "outputs": [
        {
          "internalType": "uint256",
          "name": "",
          "type": "uint256"
        }
      ],
      "payable": false,
      "stateMutability": "view",
      "type": "function"
    }
  ],
  "bytecode": "0x608060405234801561001057600080fd5b5033600160006101000a81548173ffffffffffffffffffffffffffffffffffffffff021916908373ffffffffffffffffffffffffffffffffffffffff1602179055506107ce806100616000396000f3fe60806040526004361061003f5760003560e01c806329c68dc1146100445780632e1a7d4d1461005b5780636f9fb98a146100aa578063d0e30db0146100d5575b600080fd5b34801561005057600080fd5b506100596100f3565b005b34801561006757600080fd5b506100946004803603602081101561007e57600080fd5b81019080803590602001909291905050506101e2565b6040518082815260200191505060405180910390f35b3480156100b657600080fd5b506100bf610503565b6040518082815260200191505060405180910390f35b6100dd61050b565b6040518082815260200191505060405180910390f35b600160009054906101000a900473ffffffffffffffffffffffffffffffffffffffff1673ffffffffffffffffffffffffffffffffffffffff163373ffffffffffffffffffffffffffffffffffffffff16146101b6576040517f08c379a000000000000000000000000000000000000000000000000000000000815260040180806020018281038252601a8152602001807f4163636573732064656e696564212041646d696e206f6e6c792100000000000081525060200191505060405180910390fd5b600160149054906101000a900460ff1615600160146101000a81548160ff021916908315150217905550565b60003382806000808473ffffffffffffffffffffffffffffffffffffffff1673ffffffffffffffffffffffffffffffffffffffff16815260200190815260200160002054101561029a576040517f08c379a000000000000000000000000000000000000000000000000000000000815260040180806020018281038252601f8152602001807f4465706f73697465642062616c616e636520696e73756666696369656e74210081525060200191505060405180910390fd5b600160009054906101000a900473ffffffffffffffffffffffffffffffffffffffff1673ffffffffffffffffffffffffffffffffffffffff163373ffffffffffffffffffffffffffffffffffffffff161461035d576040517f08c379a000000000000000000000000000000000000000000000000000000000815260040180806020018281038252601a8152602001807f4163636573732064656e696564212041646d696e206f6e6c792100000000000081525060200191505060405180910390fd5b600160149054906101000a900460ff16156103c3576040517f08c379a00000000000000000000000000000000000000000000000000000000081526004018080602001828103825260278152602001806107736027913960400191505060405180910390fd5b836000803373ffffffffffffffffffffffffffffffffffffffff1673ffffffffffffffffffffffffffffffffffffffff1681526020019081526020016000206000828254039250508190556000803373ffffffffffffffffffffffffffffffffffffffff1673ffffffffffffffffffffffffffffffffffffffff168152602001908152602001600020819055507fa502fd41811afb69adfdfadf22b00a476d683cb0e8fcb04ecef9e331e2a26a6d3385604051808373ffffffffffffffffffffffffffffffffffffffff1673ffffffffffffffffffffffffffffffffffffffff1681526020018281526020019250505060405180910390a16000803373ffffffffffffffffffffffffffffffffffffffff1673ffffffffffffffffffffffffffffffffffffffff1681526020019081526020016000205492505050919050565b600047905090565b6000600160009054906101000a900473ffffffffffffffffffffffffffffffffffffffff1673ffffffffffffffffffffffffffffffffffffffff163373ffffffffffffffffffffffffffffffffffffffff16146105d0576040517f08c379a000000000000000000000000000000000000000000000000000000000815260040180806020018281038252601a8152602001807f4163636573732064656e696564212041646d696e206f6e6c792100000000000081525060200191505060405180910390fd5b600160149054906101000a900460ff1615610636576040517f08c379a00000000000000000000000000000000000000000000000000000000081526004018080602001828103825260278152602001806107736027913960400191505060405180910390fd5b346000803373ffffffffffffffffffffffffffffffffffffffff1673ffffffffffffffffffffffffffffffffffffffff1681526020019081526020016000206000828254019250508190556000803373ffffffffffffffffffffffffffffffffffffffff1673ffffffffffffffffffffffffffffffffffffffff168152602001908152602001600020819055507fa8126f7572bb1fdeae5b5aa9ec126438b91f658a07873f009d041ae690f3a1933334604051808373ffffffffffffffffffffffffffffffffffffffff1673ffffffffffffffffffffffffffffffffffffffff1681526020018281526020019250505060405180910390a16000803373ffffffffffffffffffffffffffffffffffffffff1673ffffffffffffffffffffffffffffffffffffffff1681526020019081526020016000205490509056fe4369726375697420627265616b657220666c69707065642c206163636573732064656e69656421a265627a7a7231582081d43ae1c18f1d706aa248bf64ec124d4b3651554ddda1944b9ee16bf58d1c1064736f6c63430005100032",
  "source": "// SPDX-License-Identifier: MIT\npragma solidity >=0.5.16;\n\ncontract DumpEth {\n    // Balance 'state' of the contract\n    // Mapping to store user balance, restricted to private calls, contract does not talk to other contracts\n    mapping(address => uint256) private balance;\n\n    // Hold the owner of the contract in state\n    address private owner;\n\n    // State for circuit breaker\n    bool private stopped;\n\n\n    // Set the owner to the creator of this contract\n    constructor() public {\n        owner = msg.sender;\n    }\n\n    // Events to emit for user deposit to contract and withdrawal\n    event LogDepositMade(address accountAddress, uint256 amount);\n    event LogWithdrawalMade(address accountAddress, uint256 amount);\n\n    // Event to emit when ETH received without calldata\n    event Received(address sender, uint256 value);\n\n    // Fallback function in case tx is sent without ether or calls function that does not exist\n    function() external payable {revert();}\n\n    // Fallback 'receive' funciton to collect ETH sent with empty calldata\n    // receive() external payable { emit Received(msg.sender, msg.value);}\n\n    // Ensure caller is admin of contract\n    modifier isAdmin() {\n        require(msg.sender == owner, \"Access denied! Admin only!\");\n        _;\n    }\n\n    // Ensure contract is not stopped before proceding\n    modifier emergencyStop() {\n        require(!stopped, \"Circuit breaker flipped, access denied!\");\n        _;\n    }\n    modifier onlyAfterStopped() {\n        require(stopped, \"Only accessible in emergency shutdown!\");\n        _;\n    }\n\n    // Check balance before allowing withdrawal\n    modifier goodBalance(address _sender, uint _request) {\n        require(\n            balance[_sender] >= _request,\n            \"Deposited balance insufficient!\"\n        );\n        _;\n    }\n\n    // Function for stopping contract\n    function toggleActive() public isAdmin {\n        stopped = !stopped;\n    }\n\n    // Function to deposit to contract\n    function deposit() public payable isAdmin emergencyStop returns (uint256) {\n        // Only allow the 'deployer' of the contract to deposit\n        {\n            balance[msg.sender] = balance[msg.sender] += msg.value;\n            emit LogDepositMade(address(msg.sender), msg.value);\n            // .transfer(msg.value);\n            return balance[msg.sender];\n        }\n    }\n\n    // Function to withdraw from contract\n    function withdraw(uint256 _amount)\n        public\n        // Only allow the 'deployer' of the contract to withdraw, checks balance\n        goodBalance(msg.sender, _amount)\n        isAdmin\n        emergencyStop\n        returns (uint256)\n    {\n        {\n            balance[msg.sender] = balance[msg.sender] -= _amount;\n            emit LogWithdrawalMade(address(msg.sender), _amount);\n            // Withdraw Ether to senders address if balance is good and is admin\n            // msg.sender.transfer(address(msg.sender).balance);\n            return balance[msg.sender];\n        }\n    }\n\n    // Emergency withdrawal, after circuit breaker flipped\n    function emergencyWithdrawal()\n        private\n        goodBalance(msg.sender, balance[msg.sender])\n        isAdmin\n        onlyAfterStopped\n    {\n        {\n            uint256 amt = balance[msg.sender];\n            balance[msg.sender] = 0;\n            emit LogWithdrawalMade(address(msg.sender), amt);\n            // msg.sender.transfer(address(this).balance); // Withdraw total balance stored in contract, last operation for re-entrancy protection\n        }\n    }\n\n    // Function to check balance of contract\n    function getContractBalance() public view returns (uint256) {\n        return address(this).balance;\n    }\n}\n",
  "sourcePath": "/Users/7fs/Development/Ethereum/Consensys/final-showdown/consensys_final/contracts/DumpEth.sol",
  "compiler": {
    "name": "solc",
    "version": "0.5.16+commit.9c3226ce.Emscripten.clang"
  },
  "schemaVersion": "3.2.5",
  "updatedAt": "2020-12-30T19:29:23.404Z",
  "devdoc": {
    "methods": {}
  },
  "userdoc": {
    "methods": {}
  }
}