{
  "contractName": "DumpEth",
  "abi": [
    {
      "inputs": [],
      "stateMutability": "nonpayable",
      "type": "constructor"
    },
    {
      "anonymous": false,
      "inputs": [
        {
          "indexed": false,
          "internalType": "address",
          "name": "accountAddress",
          "type": "address"
        },
        {
          "indexed": false,
          "internalType": "uint256",
          "name": "amount",
          "type": "uint256"
        }
      ],
      "name": "LogDepositMade",
      "type": "event"
    },
    {
      "anonymous": false,
      "inputs": [
        {
          "indexed": false,
          "internalType": "address",
          "name": "accountAddress",
          "type": "address"
        },
        {
          "indexed": false,
          "internalType": "uint256",
          "name": "amount",
          "type": "uint256"
        }
      ],
      "name": "LogWithdrawalMade",
      "type": "event"
    },
    {
      "anonymous": false,
      "inputs": [
        {
          "indexed": false,
          "internalType": "address",
          "name": "sender",
          "type": "address"
        },
        {
          "indexed": false,
          "internalType": "uint256",
          "name": "value",
          "type": "uint256"
        }
      ],
      "name": "Received",
      "type": "event"
    },
    {
      "stateMutability": "payable",
      "type": "fallback"
    },
    {
      "stateMutability": "payable",
      "type": "receive"
    },
    {
      "inputs": [],
      "name": "isActive",
      "outputs": [
        {
          "internalType": "bool",
          "name": "",
          "type": "bool"
        }
      ],
      "stateMutability": "view",
      "type": "function"
    },
    {
      "inputs": [],
      "name": "toggleActive",
      "outputs": [],
      "stateMutability": "nonpayable",
      "type": "function"
    },
    {
      "inputs": [],
      "name": "deposit",
      "outputs": [],
      "stateMutability": "payable",
      "type": "function"
    },
    {
      "inputs": [
        {
          "internalType": "uint256",
          "name": "_amount",
          "type": "uint256"
        }
      ],
      "name": "withdraw",
      "outputs": [],
      "stateMutability": "nonpayable",
      "type": "function"
    },
    {
      "inputs": [],
      "name": "getContractBalance",
      "outputs": [
        {
          "internalType": "uint256",
          "name": "",
          "type": "uint256"
        }
      ],
      "stateMutability": "view",
      "type": "function"
    }
  ],
  "bytecode": "0x608060405234801561001057600080fd5b5033600160006101000a81548173ffffffffffffffffffffffffffffffffffffffff021916908373ffffffffffffffffffffffffffffffffffffffff160217905550610969806100616000396000f3fe60806040526004361061004e5760003560e01c806322f3e2d4146100af57806329c68dc1146100dc5780632e1a7d4d146100f35780636f9fb98a1461012e578063d0e30db014610159576100aa565b366100aa577f88a5966d370b9919b20f3e2c13ff65706f196a4e32cc2c12bf57088f885258743334604051808373ffffffffffffffffffffffffffffffffffffffff1681526020018281526020019250505060405180910390a1005b600080fd5b3480156100bb57600080fd5b506100c4610163565b60405180821515815260200191505060405180910390f35b3480156100e857600080fd5b506100f161017a565b005b3480156100ff57600080fd5b5061012c6004803603602081101561011657600080fd5b8101908080359060200190929190505050610269565b005b34801561013a57600080fd5b50610143610579565b6040518082815260200191505060405180910390f35b610161610581565b005b6000600160149054906101000a900460ff16905090565b600160009054906101000a900473ffffffffffffffffffffffffffffffffffffffff1673ffffffffffffffffffffffffffffffffffffffff163373ffffffffffffffffffffffffffffffffffffffff161461023d576040517f08c379a000000000000000000000000000000000000000000000000000000000815260040180806020018281038252601a8152602001807f4163636573732064656e696564212041646d696e206f6e6c792100000000000081525060200191505060405180910390fd5b600160149054906101000a900460ff1615600160146101000a81548160ff021916908315150217905550565b3381806000808473ffffffffffffffffffffffffffffffffffffffff1673ffffffffffffffffffffffffffffffffffffffff16815260200190815260200160002054101561031f576040517f08c379a000000000000000000000000000000000000000000000000000000000815260040180806020018281038252601f8152602001807f4465706f73697465642062616c616e636520696e73756666696369656e74210081525060200191505060405180910390fd5b600160009054906101000a900473ffffffffffffffffffffffffffffffffffffffff1673ffffffffffffffffffffffffffffffffffffffff163373ffffffffffffffffffffffffffffffffffffffff16146103e2576040517f08c379a000000000000000000000000000000000000000000000000000000000815260040180806020018281038252601a8152602001807f4163636573732064656e696564212041646d696e206f6e6c792100000000000081525060200191505060405180910390fd5b600160149054906101000a900460ff1615610448576040517f08c379a000000000000000000000000000000000000000000000000000000000815260040180806020018281038252602781526020018061090d6027913960400191505060405180910390fd5b7fa502fd41811afb69adfdfadf22b00a476d683cb0e8fcb04ecef9e331e2a26a6d3384604051808373ffffffffffffffffffffffffffffffffffffffff1681526020018281526020019250505060405180910390a16104e56000803373ffffffffffffffffffffffffffffffffffffffff1673ffffffffffffffffffffffffffffffffffffffff1681526020019081526020016000205484610801565b6000803373ffffffffffffffffffffffffffffffffffffffff1673ffffffffffffffffffffffffffffffffffffffff1681526020019081526020016000208190555060003390508073ffffffffffffffffffffffffffffffffffffffff166108fc859081150290604051600060405180830381858888f19350505050158015610572573d6000803e3d6000fd5b5050505050565b600047905090565b600160009054906101000a900473ffffffffffffffffffffffffffffffffffffffff1673ffffffffffffffffffffffffffffffffffffffff163373ffffffffffffffffffffffffffffffffffffffff1614610644576040517f08c379a000000000000000000000000000000000000000000000000000000000815260040180806020018281038252601a8152602001807f4163636573732064656e696564212041646d696e206f6e6c792100000000000081525060200191505060405180910390fd5b600160149054906101000a900460ff16156106aa576040517f08c379a000000000000000000000000000000000000000000000000000000000815260040180806020018281038252602781526020018061090d6027913960400191505060405180910390fd5b60003411610720576040517f08c379a000000000000000000000000000000000000000000000000000000000815260040180806020018281038252600e8152602001807f4e6f2045746865722073656e742e00000000000000000000000000000000000081525060200191505060405180910390fd5b7fa8126f7572bb1fdeae5b5aa9ec126438b91f658a07873f009d041ae690f3a1933334604051808373ffffffffffffffffffffffffffffffffffffffff1681526020018281526020019250505060405180910390a16107bd6000803373ffffffffffffffffffffffffffffffffffffffff1673ffffffffffffffffffffffffffffffffffffffff1681526020019081526020016000205434610884565b6000803373ffffffffffffffffffffffffffffffffffffffff1673ffffffffffffffffffffffffffffffffffffffff16815260200190815260200160002081905550565b600082821115610879576040517f08c379a000000000000000000000000000000000000000000000000000000000815260040180806020018281038252601e8152602001807f536166654d6174683a207375627472616374696f6e206f766572666c6f77000081525060200191505060405180910390fd5b818303905092915050565b600080828401905083811015610902576040517f08c379a000000000000000000000000000000000000000000000000000000000815260040180806020018281038252601b8152602001807f536166654d6174683a206164646974696f6e206f766572666c6f77000000000081525060200191505060405180910390fd5b809150509291505056fe4369726375697420627265616b657220666c69707065642c206163636573732064656e69656421a26469706673582212202047eb24077ef45cff0396baed0da7e20e64477ee33dd5edb628f76eb5e3038564736f6c63430007000033",
  "immutableReferences": {},
  "source": "// SPDX-License-Identifier: MIT\npragma solidity >=0.7.0;\n\n// import '@openzeppelin/contracts/math/SafeMath.sol';\nimport \"./SafeMath.sol\";\n\ncontract DumpEth {\n    using SafeMath for uint;\n    // Balance 'state' of the contract\n    // Mapping to store user balance, restricted to private calls, contract does not talk to other contracts\n    mapping(address => uint256) private balance;\n\n    // Hold the owner of the contract in state\n    address private owner;\n\n    // State for circuit breaker\n    bool private stopped;\n\n    // Set the owner to the creator of this contract\n    constructor() {\n        owner = msg.sender;\n    }\n\n    // Events to emit for user deposit to contract and withdrawal\n    event LogDepositMade(address accountAddress, uint256 amount);\n    event LogWithdrawalMade(address accountAddress, uint256 amount);\n\n    // Event to emit when ETH received without calldata\n    event Received(address sender, uint256 value);\n\n    // Fallback function in case tx is sent without ether or calls function that does not exist\n    fallback() external payable {revert();}\n\n    // Fallback 'receive' funciton to collect ETH sent with empty calldata\n    receive() external payable { emit Received(msg.sender, msg.value);}\n\n    // Ensure caller is admin of contract\n    modifier isAdmin() {\n        require(msg.sender == owner, \"Access denied! Admin only!\");\n        _;\n    }\n\n    // Ensure contract is not stopped before proceding\n    modifier emergencyStop() {\n        require(!stopped, \"Circuit breaker flipped, access denied!\");\n        _;\n    }\n    modifier onlyAfterStopped() {\n        require(stopped, \"Only accessible in emergency shutdown!\");\n        _;\n    }\n\n    // Check balance before allowing withdrawal\n    modifier goodBalance(address _sender, uint _request) {\n        require(\n            balance[_sender] >= _request,\n            \"Deposited balance insufficient!\"\n        );\n        _;\n    }\n\n    // Function for checking if contract is Enabled\n    function isActive() public view returns(bool)\n    {\n        return stopped;\n    }\n\n    // Function for stopping contract\n    function toggleActive() public isAdmin {\n        stopped = !stopped;\n    }\n\n    // Function to deposit to contract\n    function deposit() public payable isAdmin emergencyStop {\n        // Only allow the 'deployer' of the contract to deposit\n        {\n            require(msg.value > 0, 'No Ether sent.');\n            emit LogDepositMade(address(msg.sender), msg.value);\n            balance[msg.sender] = SafeMath.add(balance[msg.sender], msg.value);\n        }\n    }\n\n    // Function to withdraw from contract\n    function withdraw(uint256 _amount)\n        public\n        // Only allow the 'deployer' of the contract to withdraw, checks balance\n        goodBalance(msg.sender, _amount)\n        isAdmin\n        emergencyStop\n    {\n        {\n            // Withdraw Ether to senders address if balance is good and is admin\n            emit LogWithdrawalMade(address(msg.sender), _amount);\n            balance[msg.sender] = SafeMath.sub(balance[msg.sender], _amount);\n            address payable x = msg.sender;\n            x.transfer(_amount);\n        }\n    }\n\n    // Emergency withdrawal, after circuit breaker flipped\n    function emergencyWithdrawal()\n        private\n        goodBalance(msg.sender, balance[msg.sender])\n        isAdmin\n        onlyAfterStopped\n    {\n        {\n            uint256 amt = balance[msg.sender];\n            emit LogWithdrawalMade(address(msg.sender), amt);\n            address payable x = msg.sender;\n            balance[msg.sender] = 0;\n            x.transfer(amt); // Withdraw total balance stored in contract, last operation for re-entrancy protection\n        }\n    }\n\n    // Function to check balance of contract\n    function getContractBalance() public view returns (uint256) \n    {\n        return address(this).balance;\n    }\n}\n",
  "sourcePath": "/Users/7fs/Development/Ethereum/Consensys/final-showdown/consensys_final/contracts/DumpEth.sol",
  "compiler": {
    "name": "solc",
    "version": "0.7.0+commit.9e61f92b.Emscripten.clang"
  },
  "schemaVersion": "3.2.5",
  "updatedAt": "2021-02-16T06:59:26.871Z",
  "devdoc": {
    "kind": "dev",
    "methods": {},
    "version": 1
  },
  "userdoc": {
    "kind": "user",
    "methods": {},
    "version": 1
  }
}