{
  "contractName": "DumpEth",
  "abi": [
    {
      "inputs": [],
      "payable": false,
      "stateMutability": "nonpayable",
      "type": "constructor"
    },
    {
      "anonymous": false,
      "inputs": [
        {
          "indexed": false,
          "internalType": "address",
          "name": "accountAddress",
          "type": "address"
        },
        {
          "indexed": false,
          "internalType": "uint256",
          "name": "amount",
          "type": "uint256"
        }
      ],
      "name": "LogDepositMade",
      "type": "event"
    },
    {
      "anonymous": false,
      "inputs": [
        {
          "indexed": false,
          "internalType": "address",
          "name": "accountAddress",
          "type": "address"
        },
        {
          "indexed": false,
          "internalType": "uint256",
          "name": "amount",
          "type": "uint256"
        }
      ],
      "name": "LogWithdrawalMade",
      "type": "event"
    },
    {
      "anonymous": false,
      "inputs": [
        {
          "indexed": false,
          "internalType": "address",
          "name": "sender",
          "type": "address"
        },
        {
          "indexed": false,
          "internalType": "uint256",
          "name": "value",
          "type": "uint256"
        }
      ],
      "name": "Received",
      "type": "event"
    },
    {
      "payable": true,
      "stateMutability": "payable",
      "type": "fallback"
    },
    {
      "constant": false,
      "inputs": [],
      "name": "toggleActive",
      "outputs": [],
      "payable": false,
      "stateMutability": "nonpayable",
      "type": "function"
    },
    {
      "constant": false,
      "inputs": [],
      "name": "deposit",
      "outputs": [
        {
          "internalType": "uint256",
          "name": "",
          "type": "uint256"
        }
      ],
      "payable": true,
      "stateMutability": "payable",
      "type": "function"
    }
  ],
  "bytecode": "0x608060405234801561001057600080fd5b5033600160006101000a81548173ffffffffffffffffffffffffffffffffffffffff021916908373ffffffffffffffffffffffffffffffffffffffff160217905550610415806100616000396000f3fe6080604052600436106100295760003560e01c806329c68dc11461002e578063d0e30db014610045575b600080fd5b34801561003a57600080fd5b50610043610063565b005b61004d610152565b6040518082815260200191505060405180910390f35b600160009054906101000a900473ffffffffffffffffffffffffffffffffffffffff1673ffffffffffffffffffffffffffffffffffffffff163373ffffffffffffffffffffffffffffffffffffffff1614610126576040517f08c379a000000000000000000000000000000000000000000000000000000000815260040180806020018281038252601a8152602001807f4163636573732064656e696564212041646d696e206f6e6c792100000000000081525060200191505060405180910390fd5b600160149054906101000a900460ff1615600160146101000a81548160ff021916908315150217905550565b6000600160009054906101000a900473ffffffffffffffffffffffffffffffffffffffff1673ffffffffffffffffffffffffffffffffffffffff163373ffffffffffffffffffffffffffffffffffffffff1614610217576040517f08c379a000000000000000000000000000000000000000000000000000000000815260040180806020018281038252601a8152602001807f4163636573732064656e696564212041646d696e206f6e6c792100000000000081525060200191505060405180910390fd5b600160149054906101000a900460ff161561027d576040517f08c379a00000000000000000000000000000000000000000000000000000000081526004018080602001828103825260278152602001806103ba6027913960400191505060405180910390fd5b346000803373ffffffffffffffffffffffffffffffffffffffff1673ffffffffffffffffffffffffffffffffffffffff1681526020019081526020016000206000828254019250508190556000803373ffffffffffffffffffffffffffffffffffffffff1673ffffffffffffffffffffffffffffffffffffffff168152602001908152602001600020819055507fa8126f7572bb1fdeae5b5aa9ec126438b91f658a07873f009d041ae690f3a1933334604051808373ffffffffffffffffffffffffffffffffffffffff1673ffffffffffffffffffffffffffffffffffffffff1681526020018281526020019250505060405180910390a16000803373ffffffffffffffffffffffffffffffffffffffff1673ffffffffffffffffffffffffffffffffffffffff1681526020019081526020016000205490509056fe4369726375697420627265616b657220666c69707065642c206163636573732064656e69656421a265627a7a72315820ac706bcd32ec76b30b66c3f8397e3cf88aa97504f49aec58dfa8fa564206b6bd64736f6c63430005100032",
  "source": "// SPDX-License-Identifier: MIT\npragma solidity >=0.5.16;\n\ncontract DumpEth {\n    // Balance 'state' of the contract\n    // Mapping to store user balance, restricted to private calls, contract does not talk to other contracts\n    mapping(address => uint256) private balance;\n\n    // Hold the owner of the contract in state\n    address private owner;\n\n    // State for circuit breaker\n    bool private stopped;\n\n\n    // Set the owner to the creator of this contract\n    constructor() public {\n        owner = msg.sender;\n    }\n\n    // Events to emit for user deposit to contract and withdrawal\n    event LogDepositMade(address accountAddress, uint256 amount);\n    event LogWithdrawalMade(address accountAddress, uint256 amount);\n\n    // Event to emit when ETH received without calldata\n    event Received(address sender, uint256 value);\n\n    // Fallback function in case tx is sent without ether or calls function that does not exist\n    function() external payable {revert();}\n\n    // Fallback 'receive' funciton to collect ETH sent with empty calldata\n    // receive() external payable { emit Received(msg.sender, msg.value);}\n\n    // Ensure caller is admin of contract\n    modifier isAdmin() {\n        require(msg.sender == owner, \"Access denied! Admin only!\");\n        _;\n    }\n\n    // Ensure contract is not stopped before proceding\n    modifier emergencyStop() {\n        require(!stopped, \"Circuit breaker flipped, access denied!\");\n        _;\n    }\n    modifier onlyAfterStopped() {\n        require(stopped, \"Only accessible in emergency shutdown!\");\n        _;\n    }\n\n    // Check balance before allowing withdrawal\n    modifier goodBalance(address _sender) {\n        require(\n            balance[_sender] >= msg.value,\n            \"Deposited balance insufficient!\"\n        );\n        _;\n    }\n\n    // Function for stopping contract\n    function toggleActive() public isAdmin {\n        stopped = !stopped;\n    }\n\n    // Function to deposit to contract\n    function deposit() public payable isAdmin emergencyStop returns (uint256) {\n        // Only allow the 'deployer' of the contract to deposit\n        {\n            balance[msg.sender] = balance[msg.sender] += msg.value;\n            emit LogDepositMade(address(msg.sender), msg.value);\n            // .transfer(msg.value);\n            return balance[msg.sender];\n        }\n    }\n\n    // Function to withdraw from contract\n    function withdraw(uint256 _amount)\n        private\n        // Only allow the 'deployer' of the contract to withdraw, checks balance\n        goodBalance(msg.sender)\n        isAdmin\n        emergencyStop\n        returns (uint256)\n    {\n        {\n            balance[msg.sender] = balance[msg.sender] -= _amount;\n            emit LogWithdrawalMade(address(msg.sender), _amount);\n            // Withdraw Ether to senders address if balance is good and is admin\n            // msg.sender.transfer(address(msg.sender).balance);\n            return balance[msg.sender];\n        }\n    }\n\n    // Emergency withdrawal, after circuit breaker flipped\n    function emergencyWithdrawal()\n        private\n        goodBalance(msg.sender)\n        isAdmin\n        onlyAfterStopped\n    {\n        {\n            uint256 amt = balance[msg.sender];\n            balance[msg.sender] = 0;\n            emit LogWithdrawalMade(address(msg.sender), amt);\n            // msg.sender.transfer(address(this).balance); // Withdraw total balance stored in contract, last operation for re-entrancy protection\n        }\n    }\n\n    // Function to check balance of contract\n    function getContractBalance() private view returns (uint256) {\n        return address(this).balance;\n    }\n}\n",
  "sourcePath": "/Users/7fs/Development/Ethereum/Consensys/final-showdown/consensys_final/contracts/DumpEth.sol",
  "compiler": {
    "name": "solc",
    "version": "0.5.16+commit.9c3226ce.Emscripten.clang"
  },
  "schemaVersion": "3.2.5",
  "updatedAt": "2020-12-30T19:07:42.060Z",
  "networkType": "ethereum",
  "devdoc": {
    "methods": {}
  },
  "userdoc": {
    "methods": {}
  }
}