{
  "contractName": "DumpEth",
  "abi": [
    {
      "inputs": [],
      "stateMutability": "nonpayable",
      "type": "constructor"
    },
    {
      "anonymous": false,
      "inputs": [
        {
          "indexed": false,
          "internalType": "address",
          "name": "accountAddress",
          "type": "address"
        },
        {
          "indexed": false,
          "internalType": "uint256",
          "name": "amount",
          "type": "uint256"
        }
      ],
      "name": "LogDepositMade",
      "type": "event"
    },
    {
      "anonymous": false,
      "inputs": [
        {
          "indexed": false,
          "internalType": "address",
          "name": "accountAddress",
          "type": "address"
        },
        {
          "indexed": false,
          "internalType": "uint256",
          "name": "amount",
          "type": "uint256"
        }
      ],
      "name": "LogWithdrawalMade",
      "type": "event"
    },
    {
      "anonymous": false,
      "inputs": [
        {
          "indexed": false,
          "internalType": "address",
          "name": "sender",
          "type": "address"
        },
        {
          "indexed": false,
          "internalType": "uint256",
          "name": "value",
          "type": "uint256"
        }
      ],
      "name": "Received",
      "type": "event"
    },
    {
      "stateMutability": "payable",
      "type": "fallback",
      "payable": true
    },
    {
      "stateMutability": "payable",
      "type": "receive",
      "payable": true
    },
    {
      "inputs": [],
      "name": "toggleActive",
      "outputs": [],
      "stateMutability": "nonpayable",
      "type": "function"
    },
    {
      "inputs": [],
      "name": "deposit",
      "outputs": [],
      "stateMutability": "payable",
      "type": "function",
      "payable": true
    },
    {
      "inputs": [
        {
          "internalType": "uint256",
          "name": "_amount",
          "type": "uint256"
        }
      ],
      "name": "withdraw",
      "outputs": [],
      "stateMutability": "nonpayable",
      "type": "function"
    },
    {
      "inputs": [],
      "name": "getContractBalance",
      "outputs": [
        {
          "internalType": "uint256",
          "name": "",
          "type": "uint256"
        }
      ],
      "stateMutability": "view",
      "type": "function",
      "constant": true
    }
  ],
  "bytecode": "0x608060405234801561001057600080fd5b5033600160006101000a81548173ffffffffffffffffffffffffffffffffffffffff021916908373ffffffffffffffffffffffffffffffffffffffff1602179055506108de806100616000396000f3fe6080604052600436106100435760003560e01c806329c68dc1146100a45780632e1a7d4d146100bb5780636f9fb98a146100f6578063d0e30db0146101215761009f565b3661009f577f88a5966d370b9919b20f3e2c13ff65706f196a4e32cc2c12bf57088f885258743334604051808373ffffffffffffffffffffffffffffffffffffffff1681526020018281526020019250505060405180910390a1005b600080fd5b3480156100b057600080fd5b506100b961012b565b005b3480156100c757600080fd5b506100f4600480360360208110156100de57600080fd5b810190808035906020019092919050505061021a565b005b34801561010257600080fd5b5061010b61052a565b6040518082815260200191505060405180910390f35b610129610532565b005b600160009054906101000a900473ffffffffffffffffffffffffffffffffffffffff1673ffffffffffffffffffffffffffffffffffffffff163373ffffffffffffffffffffffffffffffffffffffff16146101ee576040517f08c379a000000000000000000000000000000000000000000000000000000000815260040180806020018281038252601a8152602001807f4163636573732064656e696564212041646d696e206f6e6c792100000000000081525060200191505060405180910390fd5b600160149054906101000a900460ff1615600160146101000a81548160ff021916908315150217905550565b3381806000808473ffffffffffffffffffffffffffffffffffffffff1673ffffffffffffffffffffffffffffffffffffffff1681526020019081526020016000205410156102d0576040517f08c379a000000000000000000000000000000000000000000000000000000000815260040180806020018281038252601f8152602001807f4465706f73697465642062616c616e636520696e73756666696369656e74210081525060200191505060405180910390fd5b600160009054906101000a900473ffffffffffffffffffffffffffffffffffffffff1673ffffffffffffffffffffffffffffffffffffffff163373ffffffffffffffffffffffffffffffffffffffff1614610393576040517f08c379a000000000000000000000000000000000000000000000000000000000815260040180806020018281038252601a8152602001807f4163636573732064656e696564212041646d696e206f6e6c792100000000000081525060200191505060405180910390fd5b600160149054906101000a900460ff16156103f9576040517f08c379a00000000000000000000000000000000000000000000000000000000081526004018080602001828103825260278152602001806108826027913960400191505060405180910390fd5b7fa502fd41811afb69adfdfadf22b00a476d683cb0e8fcb04ecef9e331e2a26a6d3384604051808373ffffffffffffffffffffffffffffffffffffffff1681526020018281526020019250505060405180910390a16104966000803373ffffffffffffffffffffffffffffffffffffffff1673ffffffffffffffffffffffffffffffffffffffff16815260200190815260200160002054846106ef565b6000803373ffffffffffffffffffffffffffffffffffffffff1673ffffffffffffffffffffffffffffffffffffffff1681526020019081526020016000208190555060003390508073ffffffffffffffffffffffffffffffffffffffff166108fc859081150290604051600060405180830381858888f19350505050158015610523573d6000803e3d6000fd5b5050505050565b600047905090565b600160149054906101000a900460ff1615610598576040517f08c379a00000000000000000000000000000000000000000000000000000000081526004018080602001828103825260278152602001806108826027913960400191505060405180910390fd5b6000341161060e576040517f08c379a000000000000000000000000000000000000000000000000000000000815260040180806020018281038252600e8152602001807f4e6f2045746865722073656e742e00000000000000000000000000000000000081525060200191505060405180910390fd5b7fa8126f7572bb1fdeae5b5aa9ec126438b91f658a07873f009d041ae690f3a1933334604051808373ffffffffffffffffffffffffffffffffffffffff1681526020018281526020019250505060405180910390a16106ab6000803373ffffffffffffffffffffffffffffffffffffffff1673ffffffffffffffffffffffffffffffffffffffff1681526020019081526020016000205434610739565b6000803373ffffffffffffffffffffffffffffffffffffffff1673ffffffffffffffffffffffffffffffffffffffff16815260200190815260200160002081905550565b600061073183836040518060400160405280601e81526020017f536166654d6174683a207375627472616374696f6e206f766572666c6f7700008152506107c1565b905092915050565b6000808284019050838110156107b7576040517f08c379a000000000000000000000000000000000000000000000000000000000815260040180806020018281038252601b8152602001807f536166654d6174683a206164646974696f6e206f766572666c6f77000000000081525060200191505060405180910390fd5b8091505092915050565b600083831115829061086e576040517f08c379a00000000000000000000000000000000000000000000000000000000081526004018080602001828103825283818151815260200191508051906020019080838360005b83811015610833578082015181840152602081019050610818565b50505050905090810190601f1680156108605780820380516001836020036101000a031916815260200191505b509250505060405180910390fd5b506000838503905080915050939250505056fe4369726375697420627265616b657220666c69707065642c206163636573732064656e69656421a2646970667358221220e9b009d4f3a58a8409da9756abfb29713751f99b74da4f28c8734110e786f9f364736f6c63430007060033",
  "immutableReferences": {},
  "source": "// SPDX-License-Identifier: MIT\npragma solidity >=0.7.0;\n\nimport \"@openzeppelin/contracts/math/SafeMath.sol\";\n\n\ncontract DumpEth {\n    using SafeMath for uint;\n    // Balance 'state' of the contract\n    // Mapping to store user balance, restricted to private calls, contract does not talk to other contracts\n    mapping(address => uint256) private balance;\n\n    // Hold the owner of the contract in state\n    address private owner;\n\n    // State for circuit breaker\n    bool private stopped;\n\n\n    // Set the owner to the creator of this contract\n    constructor() {\n        owner = msg.sender;\n    }\n\n    // Events to emit for user deposit to contract and withdrawal\n    event LogDepositMade(address accountAddress, uint256 amount);\n    event LogWithdrawalMade(address accountAddress, uint256 amount);\n\n    // Event to emit when ETH received without calldata\n    event Received(address sender, uint256 value);\n\n    // Fallback function in case tx is sent without ether or calls function that does not exist\n    fallback() external payable {revert();}\n\n    // Fallback 'receive' funciton to collect ETH sent with empty calldata\n    receive() external payable { emit Received(msg.sender, msg.value);}\n\n    // Ensure caller is admin of contract\n    modifier isAdmin() {\n        require(msg.sender == owner, \"Access denied! Admin only!\");\n        _;\n    }\n\n    // Ensure contract is not stopped before proceding\n    modifier emergencyStop() {\n        require(!stopped, \"Circuit breaker flipped, access denied!\");\n        _;\n    }\n    modifier onlyAfterStopped() {\n        require(stopped, \"Only accessible in emergency shutdown!\");\n        _;\n    }\n\n    // Check balance before allowing withdrawal\n    modifier goodBalance(address _sender, uint _request) {\n        require(\n            balance[_sender] >= _request,\n            \"Deposited balance insufficient!\"\n        );\n        _;\n    }\n\n    // Function for stopping contract\n    function toggleActive() public isAdmin {\n        stopped = !stopped;\n    }\n\n    // Function to deposit to contract\n    function deposit() public payable emergencyStop {\n        // Only allow the 'deployer' of the contract to deposit\n        {\n            require(msg.value > 0, 'No Ether sent.');\n            emit LogDepositMade(address(msg.sender), msg.value);\n            balance[msg.sender] = SafeMath.add(balance[msg.sender], msg.value);\n        }\n    }\n\n    // Function to withdraw from contract\n    function withdraw(uint256 _amount)\n        public\n        // Only allow the 'deployer' of the contract to withdraw, checks balance\n        goodBalance(msg.sender, _amount)\n        isAdmin\n        emergencyStop\n    {\n        {\n            // Withdraw Ether to senders address if balance is good and is admin\n            emit LogWithdrawalMade(address(msg.sender), _amount);\n            balance[msg.sender] = SafeMath.sub(balance[msg.sender], _amount);\n            address payable x = msg.sender;\n            x.transfer(_amount);\n        }\n    }\n\n    // Emergency withdrawal, after circuit breaker flipped\n    function emergencyWithdrawal()\n        private\n        goodBalance(msg.sender, balance[msg.sender])\n        isAdmin\n        onlyAfterStopped\n    {\n        {\n            uint256 amt = balance[msg.sender];\n            emit LogWithdrawalMade(address(msg.sender), amt);\n            address payable x = msg.sender;\n            balance[msg.sender] = 0;\n            x.transfer(amt); // Withdraw total balance stored in contract, last operation for re-entrancy protection\n        }\n    }\n\n    // Function to check balance of contract\n    function getContractBalance() public view returns (uint256) \n    {\n        return address(this).balance;\n    }\n}\n",
  "sourcePath": "/Users/7fs/Development/Ethereum/Consensys/final-showdown/consensys_final/contracts/DumpEth.sol",
  "compiler": {
    "name": "solc",
    "version": "0.7.6+commit.7338295f.Emscripten.clang"
  },
  "schemaVersion": "3.2.5",
  "updatedAt": "2021-01-01T05:57:05.371Z",
  "networkType": "ethereum",
  "devdoc": {
    "kind": "dev",
    "methods": {},
    "version": 1
  },
  "userdoc": {
    "kind": "user",
    "methods": {},
    "version": 1
  }
}